:020000040800F2
:10000000F810002021040008315700082D86000850
:1000100029570008C11E0008817300080000000075
:10002000000000000000000000000000A15C0008CB
:10003000A91F000800000000A9570008595D00082A
:100040003B0400083B0400083B0400083B04000894
:100050003B0400083B0400083B0400083B04000884
:100060003B0400083B0400083B0400083B04000874
:100070003B0400083B0400083B0400083B04000864
:100080003B0400083B0400083B0400083B04000854
:100090003B0400083B0400083B0400083B04000844
:1000A0003B0400083B0400083B0400083B04000834
:1000B000D96000083B0400083B0400083B0400082A
:1000C0003B0400083B0400083B0400083B04000814
:1000D0003B040008217100083B0400083B040008B1
:1000E0003B0400083B040008000000003B0400083B
:1000F0003B0400083B0400083B0400083B040008E4
:100100003B0400083B0400083B0400083B040008D3
:100110003B0400083B0400083B0400083B040008C3
:100120003B0400083B0400083B0400083B040008B3
:100130003B0400083B0400083B0400083B040008A3
:1001400000000000000000000000000000000000AF
:100150003B0400083B0400083B0400083B04000883
:100160003B0400083B0400083B0400083B04000873
:100170003B0400083B0400083B0400083B04000863
:100180003B0400083B0400083B0400083B04000853
:100190003B0400083B0400083B0400083B04000843
:1001A0003B0400083B0400083B0400083B04000833
:1001B0003B0400083B0400083B0400083B04000823
:1001C0003B0400083B0400083B0400083B04000813
:1001D0003B0400083B0400083B0400083B04000803
:1001E0003B0400083B0400083B0400083B040008F3
:1001F0003B0400083B0400083B0400083B040008E3
:100200003B0400083B0400083B0400083B040008D2
:100210003B0400083B0400083B0400083B040008C2
:100220003B0400083B0400083B04000800000000F9
:100230003B0400083B040008000000003B040008E9
:100240003B0400083B0400083B0400083B04000892
:100250003B0400083B0400083B0400083B04000882
:100260003B0400083B0400083B0400083B04000872
:100270003B0400083B0400083B04000800000000A9
:100280003B0400083B0400083B0400080000000099
:10029000000000003B04000800F002F800F0B0F895
:1002A00014A696E8000CB244B344DA4501D100F03C
:1002B000A7F8BAE80F000FA696E83000A5EB0405F2
:1002C00004EB0607AAEB0704A7F101074FEA15158F
:1002D0004FEA3414A4F10104AC4201D300F090F8C9
:1002E00013F0010F18BFFB1A43F0010300F001F8EF
:1002F000DBE71847C8880000E8880000103A24BFF0
:1003000078C878C1FAD8520724BF30C830C144BF7A
:1003100004680C6070470000704700000023002450
:1003200000250026103A28BF78C1FBD8520728BF05
:1003300030C148BF0B6070476E2900F0DD81702925
:1003400000F01383662908F0D281652908F0CF8177
:10035000672908F0CC81612908F0CB8103681B0A6A
:1003600028BF41F08001692900F08A81642900F0EA
:100370008781752900F084816F2900F0A182782996
:1003800000F0DF82E92900F03B82E42900F03882A6
:10039000F52900F03582EF2900F09E82F82900F05F
:1003A000DE820368DB0928BF41F08001632900F089
:1003B000F787732900F0FC87E32901F00780F32910
:1003C00001F00C80002070471FB508F083F99DE80C
:1003D000030001F0FDFA01F0F7F80400002000210D
:1003E00008F062F9401C60600020002108F046F926
:1003F000E06000F0FBFF1FBD10B501F060F810BD1C
:1004000001F0B4F81146FFF7DFFF07F009FD01F036
:100410007BFA03B4FFF7F0FF03BC01F097FC000088
:100420000948804709480047FEE7FEE7FEE7FEE788
:10043000FEE7FEE7FEE7FEE7FEE7FEE704480549C4
:10044000054A064B70470000795F000899020008D2
:10045000F80A0020F8100020F80C0020F80C00200A
:1004600053EA020C00F069802DE9F04B4FF00006D2
:10047000002B1FBFB3FA83F503FA05F424FA05F63F
:100480005E4012BF1643B2FA82F502FA05F4C5F1D6
:1004900020051EBF22FA05FC44EA0C04203556EA6A
:1004A000044C4FEA144418BF641C4FF000084FF08E
:1004B0000009904271EB030C39D3002919BFB1FA3E
:1004C00081F701FA07F6B0FA80F700FA07F6C7F1EC
:1004D00020071EBF20FA07FC46EA0C062037B6FBB1
:1004E000F4FCA7EB0507103F07F01F0BCBF120062C
:1004F0002CFA06F60CFA0BFB44BFB3460026202F5D
:10050000A4BF5E464FF0000B5BEA060C08BF4FF03D
:10051000010B19EB0B0948EB0608ABFB027C06FB51
:1005200002CC0BFB03CCC01B71EB0C01C1E70B46EB
:10053000024641464846BDE8F08B13B5084318BF54
:100540004FF0FF300146AFF30080BDE81C4070471C
:100550000FB4044910B503AA029800F0E1F810BCEA
:100560005DF814FB740000204FF0000200B5134644
:1005700094469646203922BFA0E80C50A0E80C50C3
:10058000B1F12001BFF4F7AF090728BFA0E80C5074
:1005900048BF0CC05DF804EB890028BF40F8042B6D
:1005A00008BF704748BF20F8022B11F0804F18BFDA
:1005B00000F8012B704770477047704770B50446CC
:1005C00085690068C10601D5302600E02026C007F5
:1005D00007D070BDD4E9012130469047206A401C05
:1005E00020626D1EF6D570BD70B504468569007831
:1005F000C00707D170BDD4E9012120209047206AAF
:10060000401C20626D1EF6D570BD09684A0501D5F3
:1006100040B27047C905FCD500B2704709684A0569
:1006200001D5C0B27047C905FCD580B2704770B51E
:100630000C460546012A05D02878800600D5EA69CF
:10064000002302E0012305E05B1C934202D2E05C40
:100650000028F9D1A869E618C01AA861286A1844C8
:1006600028622846FFF7AAFF04E0D5E9012114F823
:10067000010B9047B442F8D32846FFF7B5FF70BD91
:100680002DE9F0410646002410687529314616A56B
:1006900010D0FFF7BAFF002802DA404213A507E0A6
:1006A00031688A0701D512A502E0490704D511A5D2
:1006B000012401E0FFF7B2FF00210A2206F124071E
:1006C00009E0B0FBF2FCB0FBF2F302FB1C0030309F
:1006D00078541846491C0028F3D123462A46304650
:1006E000BDE8F04100F055BA000000002D00000008
:1006F0002B0000002000000011680268006A53050A
:1007000001D508700AE0D30501D5088006E013067C
:1007100003D5C217C1E9000200E00860012070475C
:10072000074B70B50D467B4400F01DFE044628467D
:1007300000F058FE10B14FF0FF3070BD204670BD84
:10074000C77600002DE9FF5F15468A460446DFF8AC
:10075000AC80F8440027D8E900103E46CDE90010EF
:1007600010E03AF816106A4602A800F0DBFE411CC1
:1007700007D02178890603D5E269391891420DD84E
:100780000744761C2078800602D5E069B84205DD72
:10079000AE42E6DB3AF816000028E2D1A069C01BA1
:1007A000A0612046FFF70AFFD8E90010CDE900104C
:1007B000002017E03AF818106A4602A800F0B2FECE
:1007C000B0F1FF3F81460BD000250DF1080B05E08D
:1007D000D4E901211BF8050090476D1C4D45F7D366
:1007E00008F10100B0428046E4DB206A3844206210
:1007F0002046FFF7F9FEBDE8FF9F0000A27F000042
:100800002DE9F0418046D21D22F007020025D2E9F1
:100810000002F52915A614D0011E72F1000106DAB6
:100820000023D0EB030063EB020211A608E0D8F826
:1008300000108B0701D50FA602E0490701D50EA6CF
:1008400001251146002408F1240704E000F05CF9BA
:1008500030323A55641C50EA0102F7D12B46324639
:1008600021464046BDE8F04100F093B90000000089
:100870002D0000002B0000002000000030B40021FB
:1008800000F1240408E002F00705D208303542EAFE
:100890004372DB086554491C52EA0305F3D104682E
:1008A000002310A2250708D504F020040C4304D02F
:1008B000C46901230CA2641EC46130BC00F069B994
:1008C00010B5044621461068FFF7A8FE02462046F0
:1008D000BDE810400023D1E7D21D22F00701D1E985
:1008E0000023CBE70000000030000000F0B40D460C
:1008F0000188090502D5214C7C4402E01F4C7C4450
:100900000E34002100F1240608E002F00F0712095E
:10091000E75D42EA03721B097754491C52EA030758
:10092000F3D102780023120704D5702D06D009B147
:10093000022311342246F0BC00F02BB901231034FD
:10094000F8E770B504460D4621461068FFF766FECD
:10095000024629462046BDE870400023C6E7D21D66
:1009600022F00703D3E90023C0E70368126843F0CD
:10097000200303600823C3610023B7E7047E00005F
:100980002DE9F05F894604464FF0000ADFF874B1A4
:10099000FB44C0F820A02046E1688847002874D0B6
:1009A000252806D0D4E901219047206A401C206206
:1009B000F1E700265F462046E16888472028054683
:1009C00007DB312D05D2781910F8200C08B1064349
:1009D000F1E7B00701D526F00406C4F81CA00027F3
:1009E000C4F818A02A2D09D0284607F040FE38B3D5
:1009F00004EB8708303DC8F8185019E059F8041B7B
:100A0000204604EB87029161E1688847012F054683
:100A100018D1E069002820DA26F020061DE0D8F879
:100A2000180000EB800005EB40003038C8F81800D3
:100A30002046E1688847054607F019FE0028EED1F8
:100A4000012F0AD02E2D08D12046E16888477F1C4F
:100A50000546022F46F02006C4DBA069002803DA11
:100A6000404246F00106A061F00701D026F01006D2
:100A70006C2D0BD0682D09D04C2D39D06A2D35D076
:100A8000742D35D07A2D33D016E038E0E1682F464A
:100A900020468847B842054609D16C2F26D04FF42E
:100AA0008060E168064320468847054604E06C2FD5
:100AB0001AD04FF4807006430DB3A5F141001928F8
:100AC00002D8203546F400664A462946204626606C
:100AD0004E46FFF731FC80B101280BD0F61D26F001
:100AE000070000F1080956E74020E4E78020D8E736
:100AF0000020D6E706F104094DE7284652E7206AB0
:100B0000BDE8F09F947D000030B5B0F10A0271F1AC
:100B100000034FEA900E4EEA817EB0EB0E0061EBCF
:100B200091014FEA101E4EEA017E10EB0E0041EBE0
:100B300011114FEA102E4EEA016E10EB0E0041EB40
:100B400011214FEA104E4EEA014E10EB0E0041EB20
:100B50001141401841F100014FEAD00040EA4170D4
:100B60004FEAD1014FEA810444EA907410EB80050A
:100B700044EB01046D1944EB0404521BA3414FF0F4
:100B8000000348BF0A3200D530BD401C41F10001CE
:100B900030BD2DE9F0470D4699469246044600F1D6
:100BA00024080168880604D5E06921F0100121605D
:100BB00000E00120A84201DD471B00E00027A169F9
:100BC0007A1902EB0900081AA0612078C00602D445
:100BD0002046FFF7F3FC002608E0D4E901211AF8CB
:100BE00006009047206A401C761C20624E45F4DBCC
:100BF0002078C0060AD52046FFF7E0FC06E0D4E9DD
:100C0000012130209047206A401C2062381EA7F145
:100C10000107F4DC07E0D4E9012118F8050090474A
:100C2000206A401C2062281EA5F10105F3DC204645
:100C3000FFF7DAFC2078000602D50220BDE8F08735
:100C40000120FBE72DE9FF4F0C461E464FF0FF3712
:100C50008BB0D2E90001DDF860800A908A46C1F3CA
:100C60000A5505B93D46002108464FF00000BAF18B
:100C7000000F00F4400005DA00EB80004FF4400163
:100C800001EA50004FEA9059B9F1010F00DDB94671
:100C90000A9850EA4A000ED044F61050A5F2FF35EB
:100CA00045432F14B8F1000F1ED07542291E1EDDDA
:100CB000C9F100021CE0B8F1010F4FF0000001D0B3
:100CC000302103E0F24305E02154401CB042FBDB3D
:100CD00030460022002121540B99C1F80880C1E957
:100CE00000200FB0BDE8F08FBD1B6D1CDEE74A464B
:100CF00000DA694206A800F0D3FC06AB93E80700CF
:100D000003AB83E8070050460A9907F0C7F88DE85F
:100D10000700A0F500501F3800900398002D0ADD51
:100D200042F21F014A460844002303A90390684683
:100D300007F030FB09E0A0F500504A461F380023B9
:100D400003A90390684607F03AFB8DE8070000040A
:100D5000000C03D04FF0FF30410800E01046B8F11E
:100D6000000F03D00022009215461EE0751E05D428
:100D7000FFF7CAFE303262556D1EF9D5B346012227
:100D8000084302D000227F1C04E02078302801D1E3
:100D900000227F1E002A099784D01DE0112D07DA5A
:100DA000FFF7B2FE303262556D1C50EA0102F5D1F8
:100DB000084302D00098C8B10EE00021681E05E08B
:100DC000235C625C63542254401E491C8142F7DB61
:100DD000AB46A81B401E0990002004F80B000B989E
:100DE000099AC0F80880C0E9002B7AE711264FF075
:100DF000000857E72DE9F04F88460446D21D22F03F
:100E0000070191B0D1E90001CDE90A0107F017FC13
:100E100002460B98C00F01D02D2007E02068810703
:100E200001D52B2002E0202101EAC000032A09900D
:100E300001D0072A05DB03464146204600F0F0FBBF
:100E40000BE12078800601D5E06900E00620B8F1CA
:100E5000650F814606D0B8F1660F18D0B8F1670F5C
:100E600070D131E00020B9F1110F009001DB1123A6
:100E700001E009F101030AAA01A90CA8FFF7E2FEAB
:100E8000DDE90C70002609F10105834647E00120E9
:100E90004B4600904FF000470AAA01A90CA8FFF7A3
:100EA000D1FEDDE90DB00C995D46002610B909F1BF
:100EB00001000D18B9EB050003D4C0F1FF3609F1AC
:100EC0000105A5EB09002BE0B9F1010F01DA4FF0A4
:100ED00001090020B9F1110F0090484601DD1123EE
:100EE00000E003460AAA01A90CA8FFF7ABFEDDE962
:100EF0000C704D4600268346207800070AD4AB4587
:100F000000DA5D4601A8012D04DD411911F8011C2C
:100F1000302907D04F4502DA17F1040F04DA012017
:100F200082460FE06D1EEEE7002F02DCED1B3E4413
:100F300003E0781CA84200DD7D1CB81B00F1010A0B
:100F40004FF000472078000703D4AA4501DB4FF09B
:100F5000FF3A0021B7F1004F0DF143088DF843101F
:100F600024D002202B23002F01DA7F422D230A21D7
:100F7000021EA0F1010000DC5FB197FBF1FC97FBC2
:100F8000F1F201FB1C7C17460CF1300C08F801CD86
:100F9000EEE7A8F1010003702188090501D545217C
:100FA00000E06521A0F1010800F8011C09980FA9D3
:100FB000A1EB0807FF1D00B10120411901EBEA7008
:100FC000A1693844081A401EA0612078C00602D4E6
:100FD0002046FFF7F3FA099828B1D4E90121904798
:100FE000206A401C20622078C00622D52046FFF7E8
:100FF000E5FA1EE0002E04DBB34502DD01A8805DAA
:1010000000E03020D4E901219047206A401C206292
:10101000761CAAF101005FEA000A0AD100F0D4FAB6
:10102000C0680168405CD4E901219047206A401CF7
:101030002062281EA5F10105DCDC07E0D4E90121CE
:1010400018F8010B9047206A401C2062381EA7F157
:101050000107F3DC2046FFF7C7FA032011B041E691
:101060002DE9F04F04460D46D21D22F0070089B04D
:10107000D0E900974846394607F0E1FA0246F80FF2
:1010800001D02D2307E02068810701D52B2302E042
:10109000202101EAC0038DF820300BB1012000E0CF
:1010A0000020032A824601D0072A04DB2946204675
:1010B00000F0B6FA3FE12078800601D40D2500E06B
:1010C000E569C7F30A560D2D49DA00214FEA175B8F
:1010D00008464FF00000002F00F4400007DA00EB54
:1010E00080004FF4400100EBD07001EA60008115F0
:1010F000012901DD4FF0FF3100224FEA850CBCF1E0
:10110000180F06D31346ACF118004FF08052C240BE
:1011100003E04FF4801323FA0CF30CF10C0CBCF138
:10112000200F04D3ACF1200C09FA0CF001E007FA0F
:101130000CF000294FF0004801DD18B90FE00ED186
:1011400040450CD319EB02095F4121B9404502D15A
:101150009F4329EA0209BBEB175F00D0761C208869
:10116000000502D57B48784402E07A487844193873
:1011700008AA302302F80A30037C0AF10101002E8C
:101180000AF1020A53546A4602DC4FF0300101E0D2
:101190004FF031014FF001088DF8001002D0A6F297
:1011A000FF3603E059EA470100D06B4E002D02DC08
:1011B0002178090704D54FF002082E218DF801107F
:1011C000C44600210BE0C7F303433F01C35C491C45
:1011D0006D1E02F80830052908F1010801DA002D1A
:1011E000F1DC00210CE000EB1973491C1B786D1E2B
:1011F000082902F808304FEA091908F1010801DA54
:10120000002DF0DC21688B0602D516E0A8F101085C
:10121000E04505DD02EB080313F8013C302BF5D067
:10122000B8F1000F09DD02EB080313F8013C2E2B87
:1012300003D1090701D4A8F10108002D05DD3E21E5
:1012400002F808106D1E08F10108407C002E02F81B
:10125000080008F1010804DA2D20764202F808009F
:1012600002E02B2002F808000A214FF47A7086422F
:1012700008F101080BDB96FBF0F3303302F808307D
:1012800096FBF0F308F1010800FB136601E0642E01
:101290000CDB642096FBF0F3303302F8083096FB49
:1012A000F0F308F1010800FB136601E00A2E06DBEB
:1012B00096FBF1F0303002F8080008F1010896FBC7
:1012C000F1F001FB1060303002F80800A16908F16C
:1012D000010808EB050202EB0A00081AA061207859
:1012E000C00602D42046FFF769F9216A08AE01EB77
:1012F0000A00206204E0D4E9012116F8010B9047AE
:10130000BAF1010AF7D22078C00602D52046FFF7CD
:1013100055F96E4609E016F8010B3E280FD0D4E9C6
:1013200001219047206A401C2062B8F10108F2D2E6
:101330002046FFF759F909B00320BDE8F08F206A75
:101340002844206203E0D4E90121302090476D1E3B
:10135000EBD3F8E7E275000002FCFFFF01694A1CCD
:1013600002610878704700B58FB0CDE901310021E6
:10137000059105497944CDE9031011466846FFF708
:10138000FFFA0FB000BD0000E5FFFFFF10B5436995
:1013900013B1AFF3008001E0FFF749F9012010BD60
:1013A000127800F124010A7000224A700122EDE750
:1013B00011684FF0FF32E9E710B5436913B1AFF39D
:1013C000008001E0FFF7BEF9012010BD128800F196
:1013D000240182840022C2840122EDE711684FF0CB
:1013E000FF32E9E7007B00F08000704710B542480B
:1013F0005421FFF7B9F841485421FFF7B5F84048A8
:101400005421FFF7B1F83F493B483C4A3F4B086045
:101410003D490A603A491960531C0365481C106530
:10142000012008653B48344A39A1784400F0CEF9E0
:1014300020B9384878440A3800F06FFA37482F4A04
:1014400035A1784400F0C2F920B9344878440A380C
:1014500000F063FA32482A4A2FA1784400F0B6F926
:1014600020B92F4878440A3800F057FA4023224820
:10147000DC000021224600F085F920B1254878449F
:10148000543800F04AFA1D4822464023002100F05B
:1014900079F920B121487844543800F03EFA1848D0
:1014A00022461023002100F06DF9002806D01C48C8
:1014B0007844BDE81040563800F02FBA10BD1048EF
:1014C00070B5006D20F001040B4800F0F7F90B48EF
:1014D00000F0F4F90A4800F0F1F909E0206D20F07D
:1014E0000105204600F0EAF9204600F071F82C468C
:1014F000002CF3D170BD00002000002074000020FB
:10150000C800002000000020040000200800002087
:101510007200000031730000770000001D730000AE
:10152000097300002DE9F04116460C46054600F00F
:1015300043F8036893F80101012807D0FF2C12D863
:10154000185D80B101202C70BDE8F081D3F807014F
:101550003246214603F20713C7182846BC46BDE8A9
:10156000F041002360474FF0FF30EDE7754600F093
:101570000FFAAE4605006946534620F0070085463F
:1015800018B020B5FEF75AFFBDE820404FF0000626
:101590004FF000074FF000084FF0000BAC46ACE8EE
:1015A000C009ACE8C009ACE8C009ACE8C00921F04A
:1015B00007018D467047000010B500F005F8001DCA
:1015C00010BD00BFE5700000004870473C010020DE
:1015D00070B50446051F00F0DFF90068002C14BF49
:1015E000446870BD002C18BFAC423CBF2046646804
:1015F000F8D301680A18AA4218BF456003D12A68C7
:1016000005461144016028684119A1421CBF6C6065
:1016100070BD6168696021680844286070BD000081
:101620002DE9F0411F46044603260168072A01F40C
:10163000006004DB08B116A505E016A503E008B1BB
:1016400015A500E015A521F010002060A069C01EBE
:10165000A0610FB1401EA0612046FEF7AFFF4FB161
:10166000D4E9012138469047206A401C2062C01C02
:10167000206206E0206AFAE7D4E9012115F8010B9F
:101680009047761EF8D22046FEF7AEFFBDE8F08107
:101690004E414E006E616E00494E4600696E660016
:1016A0002DE9F047814616468AB0354878440DC882
:1016B0008DE80D0032487844801C03AC0DC884E8E6
:1016C0000D0041F69B300844372190FBF1F290FB6E
:1016D000F1F5A5F1800501FB12041B3C02D5644223
:1016E000012000E00020DFF898A080460027FA449F
:1016F000AAF1BE0A0EE0E0070AD03246684607EBC0
:10170000470101230AEB810106F059FE8DE807002D
:1017100064107F1C002CEED1194F7F44AE3F19E0BE
:10172000E80715D007EB04100DF1180A90E80E0039
:101730008AE80E00C068F04201D19819089032463C
:10174000012306A903A806F03AFE03AB83E80700CD
:101750006D10641C002DE3D14FF001033246694641
:10176000B8F1000F03A802D006F014FE01E006F065
:1017700026FEC9E90001C9F808200AB0BDE8F087D3
:101780003871000070B5C468A50713D0650211D484
:10179000B2F5807F09D0B2F5007F06D0B2F5806F38
:1017A00008D1012300F1240106E05D1E6FF07F46A1
:1017B000B54201D3012070BD0161C361416024F4D1
:1017C00070611143C160002070BD00002DE9F0413F
:1017D0000C461646070047D0104600F06FF82078F8
:1017E000611C61280AD0722802D077283CD102E01F
:1017F0000125002405E00225042402E0082448F223
:10180000020511F8010B2B2806D0622809D011F827
:10181000010C74280AD00BE045F0030544F00204E3
:10182000EFE745F0040544F00104EAE744F0100452
:101830003846214600F078F8411C15D0002131616E
:1018400071604FF40071F560F1617061200704D59B
:1018500030460222002100F019F9306D40F00100FD
:1018600030653046BDE8F0810020FBE72DE9F0410E
:101870000D460646104C206DC10704D0410804D027
:1018800020F00104F7E722460EE0542000F0CFF8E4
:1018900007000ED0206D47F0010108435421206558
:1018A0003846FEF761FE3A4629463046BDE8F0412B
:1018B0008CE70020D6E70000200000202DE9F0474B
:1018C00004464FF0FF380026C568D4E90497A807FE
:1018D00018D0204600F096F9384600F02FF800287E
:1018E00000DA4646280502D54846FFF771FE4C212E
:1018F0002046FEF739FE206D20F0010020653046BD
:10190000BDE8F0874046FBE710B50446AFF3008022
:101910002046BDE81040FEF77CBD10B500F0BCF9D4
:10192000BDE8104000F0B2B90EB5CDE9000100F0FD
:1019300075FA029069460120ABBE0EBD08B5694636
:1019400000900220ABBE08BD1FB58DE807006946B8
:101950000520ABBE04B010BD1FB58DE80F00694671
:101960000620ABBEF6E708B5694600900920ABBE7D
:1019700008BD1CB5CDE9000169460A20ABBE1CBDFF
:10198000704708B5694600900C20ABBE08BD00004A
:10199000004870471C0100200048704724010020C7
:1019A000704770477047704738B504460A460020B4
:1019B0006946AFF30080002808BF38BD0246009991
:1019C000204600F0D0F9012038BD012000F01FBAF8
:1019D000F8B5AFF30080054600200C460C2000BF90
:1019E0000646A819A0420DD9324669460020AFF339
:1019F0000080070008BF00F00AFA0098A04218BF54
:101A00000546C419FFF7C8FF05600746F01D20F022
:101A100007004619284600F0A0F9B44208BFF8BDF7
:101A2000A21B31463868BDE8F84000F09CB970B59B
:101A30000646FFF7B1FF056806F10B0020F007042A
:101A4000B4429CBF002070BD2B466A68BAB11068D2
:101A5000A04210D304F1080188423CBF506858608E
:101A600007D35168101941601168091B0160586063
:101A70001460101D70BD13465268002AE7D121463C
:101A80002846FFF791FF0028DED170BD2DE9F04117
:101A9000044616460D464769007B80072ED038461F
:101AA000FFF761FF50BB3EB3012E02D0022E25D1BD
:101AB00004E0204600F071F905441DE03846FFF7C8
:101AC00060FFE168002841F01001E16005DA20467E
:101AD00000F058F80120BDE8F081C9030BD5626819
:101AE000E16A914200D81146A26911442269891A1B
:101AF000814200DD08460544002D01DA0220EAE7B4
:101B0000E16A6068E268814206D29103E06203D52F
:101B100022F4003141F01002A6690027AE4213DC26
:101B2000E16A814201D90B4600E0034603EB060C53
:101B30002369ACEB030CAC4506DD814201D98C4630
:101B400000E084469C4505D1A760276042F0200054
:101B5000A5620DE0AD1BE669AE1B8142A66000D90F
:101B60000846C01A281A20605819606022F0200028
:101B700003490840E060002084F84870ABE70000AB
:101B8000BFCFD7FFC16821F4001141F08001C160CF
:101B900000218160016070472DE9F74F15460C4622
:101BA0004FF0FF3B3848D768D2F814A0074209D05D
:101BB0005046A969FFF7DDFE002819DB3248C04313
:101BC0000740EF604FF000496FF000484C4501D3EB
:101BD000464600E0264600993B4650463246FFF70F
:101BE000B3FEA96920F00042B21A1144A96128B1DC
:101BF0002846FFF7C7FF5846BDE8FE8FA41BE5D176
:101C00000020F9E770B504460569C06A616888423A
:101C100000D80846E16821F42011E160C90312D51B
:101C2000A84208D02246411B2846FFF7B5FF10B155
:101C30004FF0FF3070BD0020E562C4E90150E0685C
:101C400020F48030E060002070BD10B50446C0680C
:101C500020F02000E060A16AA06988420DD02046F3
:101C6000FFF7D0FFE06820F4405040F01000E06043
:101C7000A06AA0612069E062606044F24001E0680F
:101C80008843E06010BD000010000200002801D071
:101C900000F05CB87047000010B5014602A000F0EB
:101CA0009DF8012010BD000053494752545245444D
:101CB0003A2052656469726563743A2063616E27E5
:101CC00074206F70656E3A20000000000000000074
:101CD00030B44FF0013C50F8042BCCFA52F451F8D8
:101CE000043BD51A20D1FCB950F8042BCCFA52F49D
:101CF00051F8043BD51A17D1B4B950F8042BCCFADB
:101D000052F451F8043BD51A0ED16CB950F8042B9B
:101D1000CCFA52F451F8043BD51A05D1002CDAD094
:101D200030BC4FF00000704729BAB1FA81F111F0D0
:101D30001801D1F120008440F2D1CA40CB4012F00A
:101D4000FF0213F0FF0330BCD01A7047014918207E
:101D5000ABBEFEE726000200704700210160416033
:101D600070470C207047034640688C46002818BF17
:101D700088423CBF03464068F8D31868184488423C
:101D800007D00CF1030020F00700001D411A521A81
:101D90000146081D0A60FFF71BBC10B50146C2686A
:101DA000900703D0900607D5886A0AE000F05CF837
:101DB00001210160881E10BD8B69486818440B69B9
:101DC000C01A91F848301BB191F84910401A10BD63
:101DD0001103FCD50028FADD401E10BD70B5054684
:101DE0000C460A2000E06D1C00F037F835B1287869
:101DF0000028F8D102E0641C00F02FF814B120781C
:101E00000028F8D1BDE870400A2000F026B810B5CF
:101E100000F02EF8BDE81040FFF738BF10B5431CA6
:101E200002E010F8011B71B18107FAD14FF00132C5
:101E300002C88C1A8C4314EAC211F9D0C01A0A06DF
:101E400003D0C01E10BDC01A10BD0A0401D0801EF0
:101E500010BD0902FCD0401E10BD08B569468DF8C2
:101E600000000320ABBE08BD004870471C010020E5
:101E700010B5012805D0002103A0FFF7AFFF012016
:101E800010BD09A1F8E7000053494752544D454D94
:101E90003A204F7574206F662068656170206D650B
:101EA0006D6F7279000000003A2048656170206D06
:101EB000656D6F727920636F7272757074656400FE
:101EC000FFE7FEE70000000083B04EF61450CEF2AC
:101ED000000000688003002801D5FFE71AE0BFF387
:101EE0004F8FBFF36F8F4EF65071CEF2000100207E
:101EF0000860BFF34F8FBFF36F8F4EF61451CEF2D1
:101F00000001086840F400300860BFF34F8FBFF352
:101F10006F8FFFE74EF61450CEF200000068C0034A
:101F2000002801D5FFE73CE04EF68451CEF20001D7
:101F300000200860BFF34F8F4EF68050CEF20000B5
:101F4000006802900298C0F34E300190FFE70298BB
:101F5000C0F3C9000090FFE701990098800761F382
:101F60004D104EF66071CEF2000108600098411EDF
:101F700000910028F0D1FFE70198411E019100284F
:101F8000E5D1FFE7BFF34F8F4EF61451CEF20001BB
:101F9000086840F480300860BFF34F8FBFF36F8F45
:101FA000FFE703B07047000070470000000000002A
:101FB00082B001900091009810B9FFE702B070471D
:101FC000FFE7FEE70000000040F22041C5F60001F7
:101FD000086840F001000860704700000000000041
:101FE00090B00F900E9100200D908020C5F600005B
:101FF0000A90FFE70E9800680D99C840002800F08D
:10200000CF81FFE70E9800680D9A012191400840AA
:102010000C900C98002800F0BF81FFE70E984068F4
:1020200000F00300012807D0FFE70E98406800F099
:10203000030002282FD1FFE70F9880680B900D98BE
:102040004100032000FA01F10B9888430B900E9891
:10205000C0680D99490000FA01F10B9808430B90F4
:102060000B980F9988600F9840680B900D9901208C
:1020700000FA01F10B9888430B900E984068C0F36A
:1020800000100D9900FA01F10B9808430B900B9882
:102090000F994860FFE70E98406800F0030003289E
:1020A00018D0FFE70F98C0680B900D9841000320EF
:1020B00000FA01F10B9888430B900E9880680D99F7
:1020C000490000FA01F10B9808430B900B980F9907
:1020D000C860FFE70E98406800F00300022826D190
:1020E000FFE70F980D996FF0030202EA51010844CF
:1020F000006A0B900D9800F0070081000F2000FA95
:1021000001F10B9888430B900E9800690D9901F02E
:102110000701890000FA01F10B9808430B900B9816
:102120000F990D9B02EA530211440862FFE70F98D2
:1021300000680B900D984100032000FA01F10B9804
:1021400088430B900E98406800F003000D994900F9
:1021500000FA01F10B9808430B900B980F99086057
:102160000E9880798007002800F01581FFE7FFE7CF
:1021700044F2F440C5F60200016841F0020101603A
:10218000006800F0020009900998FFE70D9820F020
:10219000030040F20841C5F6000140580B900D982D
:1021A00000F0030081000F2000FA01F10B98884332
:1021B0000B900F980021C5F60201884203D1FFE77A
:1021C000002008907AE00F9840F20041C5F6020125
:1021D000884203D1FFE7012007906CE00F9840F69A
:1021E0000001C5F60201884203D1FFE702200690F4
:1021F0005EE00F9840F60041C5F60201884203D127
:10220000FFE70320059050E00F9841F20001C5F66A
:102210000201884203D1FFE70420049042E00F98B6
:1022200041F20041C5F60201884203D1FFE70520D3
:10223000039034E00F9841F60001C5F60201884290
:1022400003D1FFE70620029026E00F9841F60041F7
:10225000C5F60201884203D1FFE70720019018E08C
:102260000F9842F20001C5F60201884203D1FFE750
:10227000082000900AE00F9942F20042C5F60202DF
:102280000A20914208BF09200090FFE700980190C2
:10229000FFE701980290FFE702980390FFE7039899
:1022A0000490FFE704980590FFE705980690FFE784
:1022B00006980790FFE707980890FFE708980D99A0
:1022C00001F00301890000FA01F10B9808430B901B
:1022D0000B980D9921F0030140F20842C5F6000267
:1022E00088504FF0B04000680B900C990B988843D1
:1022F0000B900E988079C006002805D5FFE70C9951
:102300000B9808430B90FFE70B984FF0B041086023
:102310000420C5F6000000680B900C990B988843C8
:102320000B900E9880798006002805D5FFE70C9960
:102330000B9808430B90FFE70B980421C5F60001AA
:1023400008600A9840680B900C990B9888430B9092
:102350000E9880798007002805D5FFE70C990B9827
:1023600008430B90FFE70B980A9948600A980068A9
:102370000B900C990B9888430B900E988079C007AE
:1023800028B1FFE70C990B9808430B90FFE70B98D7
:102390000A990860FFE7FFE70D9801300D9029E6E4
:1023A00010B070470000000083B00290ADF8061036
:1023B000029840690090009ABDF8060002EA000108
:1023C000904340EA01400299886103B070470000E1
:1023D00082B00190ADF802108DF801209DF8010047
:1023E00028B1FFE7BDF802000199886105E0BDF85A
:1023F0000200000401998861FFE702B07047000005
:1024000041F20000C5F600400068000C7047000073
:1024100040F6F020C2F200000068704700000000A3
:1024200040F21400C2F20000027840F6F021C2F23D
:1024300000010868104408607047000000000000B8
:1024400080B582B0032000F013F901F0CDFE44F214
:102450001842C5F602021168C1F3032348F60001D1
:10246000C0F60001CB5C03F01F03D8400090009839
:10247000126802F00F02895C01F01F01C84040F2AF
:102480001001C2F200010860009840F20C01C2F293
:10249000000108600F2000F013F820B1FFE70120D1
:1024A0008DF8070005E000F0BBF800208DF807006C
:1024B000FFE79DF8070002B080BD000000000000AB
:1024C00080B582B0009040F21400C2F200000078A3
:1024D00020B9FFE701208DF8070030E040F20C0042
:1024E000C2F20000006840F21401C2F200010A7852
:1024F0004FF47A71B1FBF2F1B0FBF1F002F0A8FDFC
:1025000020B1FFE701208DF8070018E000980F28A0
:102510000DD8FFE700994FF0FF30002200F090F84F
:10252000009840F21801C2F20001086003E00120A7
:102530008DF8070003E000208DF80700FFE79DF805
:10254000070002B080BD000010B581B00090009877
:1025500040784EF69851CEF2000108604EF6A05138
:10256000CEF20001086820F0010008600098406881
:102570004EF69C52CEF200021060DDF800E09EF8AC
:102580000C0000079EF80B2040EA02609EF8002035
:102590009EF808309EF809C09EF80A4040EAC44000
:1025A0009EF80D4040EA84409EF80E4040EA4440C8
:1025B0009EF80FE040EA0E4040EA0C2040EA43005B
:1025C0001043086001B010BDBFF35F8F4EF6245179
:1025D000CEF20001086820F4803008604EF6945175
:1025E000CEF20001002008607047000000000000EB
:1025F00081B00090009840F001004EF69451CEF268
:10260000000108604EF62451CEF20001086840F443
:1026100080300860BFF34F8FBFF36F8F01B07047FA
:10262000704700000000000080B582B0ADF80600E1
:10263000BDF9060004F0A8FE02B080BD0000000055
:1026400080B586B0ADF816000491039204F0B4FE94
:102650000290BDF91600019002980499039A03F0C4
:102660006BF80146019804F0D3FE06B080BD00006F
:1026700080B582B00190019804F0EEFE02B080BDFA
:1026800080B501F05DFD44F22041C5F60201096804
:10269000C1F3021248F60001C0F60001895C01F0A6
:1026A0001F01C84080BD000088B0079044F2284058
:1026B000C5F60200016801F0030106910068C0F34D
:1026C0000530059044F22C40C5F602000068C0F3C6
:1026D00000100490049844F23C41C5F602010968D8
:1026E00089B2C908484300EE100AB8EE400A8DEDE1
:1026F000020A0598002800F01B81FFE70698009069
:1027000048B1FFE70098012869D0FFE70098022848
:1027100000F08980ABE044F20040C5F6020000689A
:1027200000F020010020B0EB511F33D0FFE744F24E
:102730000040C5F602000068C0F3C10149F2000084
:10274000C0F2D030C84003909DED030AB8EE400AB5
:102750009DED051AB8EE411A80EE010A44F23840A8
:10276000C5F6020000686FF35F2001EE100AB8EEB4
:10277000411A9DED022A9FED743A82EE032A31EE52
:10278000021AB7EE002A31EE021A20EE010A8DED90
:10279000010A23E09DED050AB8EE401A9FED6C0A90
:1027A00080EE010A44F23840C5F6020000686FF37B
:1027B0005F2001EE100AB8EE411A9DED022A9FED4E
:1027C000623A82EE032A31EE021AB7EE002A31EEA7
:1027D000021A20EE010A8DED010AFFE76BE09DED84
:1027E000050AB8EE401A9FED590A80EE010A44F23C
:1027F0003840C5F6020000686FF35F2001EE100A52
:10280000B8EE411A9DED022A9FED4F3A82EE032A5F
:1028100031EE021AB7EE002A31EE021A20EE010A5A
:102820008DED010A47E09DED050AB8EE401A9FEDD7
:10283000450A80EE010A44F23840C5F602000068FD
:102840006FF35F2001EE100AB8EE411A9DED022AE7
:102850009FED3D3A82EE032A31EE021AB7EE002ACE
:1028600031EE021A20EE010A8DED010A23E09DED02
:10287000050AB8EE401A9FED350A80EE010A44F2CF
:102880003840C5F6020000686FF35F2001EE100AC1
:10289000B8EE411A9DED022A9FED2B3A82EE032AF3
:1028A00031EE021AB7EE002A31EE021A20EE010ACA
:1028B0008DED010AFFE79DED010A44F23840C5F6AF
:1028C0000200016889B2490A01EE101AB8EE411AF5
:1028D000B7EE002A31EE021A80EE010A0799BCEE2B
:1028E000C00A81ED000A9DED010A0168C1F30641AD
:1028F00001EE101AB8EE411A31EE021A80EE010A0A
:102900000799BCEEC00A81ED010A9DED010A00683D
:10291000C0F3066001EE100AB8EE411A31EE021A59
:1029200080EE010A0798BCEEC00A80ED020A07E0BB
:102930000799002008600799486007998860FFE7B9
:1029400008B0704720BCBE4B000000460024744A0B
:102950000024744C0000000088B0079044F2284026
:10296000C5F60200016801F0030106910068C0F39A
:102970000550059044F22C40C5F602000068C0F3F3
:1029800000200490049844F24441C5F6020109680D
:1029900089B2C908484300EE100AB8EE400A8DED2E
:1029A000020A0598002800F01B81FFE706980090B6
:1029B00048B1FFE70098012869D0FFE70098022896
:1029C00000F08980ABE044F20040C5F602000068E8
:1029D00000F020010020B0EB511F33D0FFE744F29C
:1029E0000040C5F602000068C0F3C10149F20000D2
:1029F000C0F2D030C84003909DED030AB8EE400A03
:102A00009DED051AB8EE411A80EE010A44F24040ED
:102A1000C5F6020000686FF35F2001EE100AB8EE01
:102A2000411A9DED022A9FED743A82EE032A31EE9F
:102A3000021AB7EE002A31EE021A20EE010A8DEDDD
:102A4000010A23E09DED050AB8EE401A9FED6C0ADD
:102A500080EE010A44F24040C5F6020000686FF3C0
:102A60005F2001EE100AB8EE411A9DED022A9FED9B
:102A7000623A82EE032A31EE021AB7EE002A31EEF4
:102A8000021A20EE010A8DED010AFFE76BE09DEDD1
:102A9000050AB8EE401A9FED590A80EE010A44F289
:102AA0004040C5F6020000686FF35F2001EE100A97
:102AB000B8EE411A9DED022A9FED4F3A82EE032AAD
:102AC00031EE021AB7EE002A31EE021A20EE010AA8
:102AD0008DED010A47E09DED050AB8EE401A9FED25
:102AE000450A80EE010A44F24040C5F60200006843
:102AF0006FF35F2001EE100AB8EE411A9DED022A35
:102B00009FED3D3A82EE032A31EE021AB7EE002A1B
:102B100031EE021A20EE010A8DED010A23E09DED4F
:102B2000050AB8EE401A9FED350A80EE010A44F21C
:102B30004040C5F6020000686FF35F2001EE100A06
:102B4000B8EE411A9DED022A9FED2B3A82EE032A40
:102B500031EE021AB7EE002A31EE021A20EE010A17
:102B60008DED010AFFE79DED010A44F24040C5F6F4
:102B70000200016889B2490A01EE101AB8EE411A42
:102B8000B7EE002A31EE021A80EE010A0799BCEE78
:102B9000C00A81ED000A9DED010A0168C1F30641FA
:102BA00001EE101AB8EE411A31EE021A80EE010A57
:102BB0000799BCEEC00A81ED010A9DED010A00688B
:102BC000C0F3066001EE100AB8EE411A31EE021AA7
:102BD00080EE010A0798BCEEC00A80ED020A07E009
:102BE0000799002008600799486007998860FFE707
:102BF00008B0704720BCBE4B000000460024744A59
:102C00000024744C0000000080B59AB01890002099
:102C10008DF857008DF856001898C07800070028E6
:102C200048D5FFE71898806E149078B1FFE71498A4
:102C3000B0F5801F13D0FFE71498B0F5001F16D031
:102C4000FFE71498B0F5401F19D019E044F22C4169
:102C5000C5F60201086840F40030086014E01898D6
:102C60000830022102F04CFE8DF857000CE0189855
:102C70002830022102F02CFF8DF8570004E003E019
:102C800001208DF85700FFE79DF8570060B9FFE776
:102C900044F25041C5F60201086820F44010189A29
:102CA000926E1043086004E09DF857008DF85600BE
:102CB000FFE7FFE718984078C007002840D0FFE7FB
:102CC0001898806D1390042820D81399DFE801F03C
:102CD000030C141C1D0044F22C41C5F602010868C7
:102CE00040F40030086015E018980830002102F028
:102CF00007FE8DF857000DE018982830002102F0EB
:102D0000E7FE8DF8570005E004E003E001208DF8B0
:102D10005700FFE79DF8570060B9FFE744F25041C4
:102D2000C5F60201086820F00700189A926D10435A
:102D3000086004E09DF857008DF85600FFE7FFE7B4
:102D400018984078800700284BD5FFE71898C06D89
:102D5000129088B1FFE71298402816D0FFE712982A
:102D600080281AD0FFE71298C0281ED0FFE71298DB
:102D7000B0F5807F1AD01AE044F22C41C5F602016A
:102D8000086840F40030086015E018980830002109
:102D900002F0B6FD8DF857000DE01898283000219C
:102DA00002F096FE8DF8570005E004E003E00120F4
:102DB0008DF85700FFE79DF8570060B9FFE744F230
:102DC0005041C5F60201086820F4E070189AD26DEF
:102DD0001043086004E09DF857008DF85600FFE7A7
:102DE000FFE7189840784007002850D5FFE718986B
:102DF000D0F8A8001190A0B1FFE71198B0F5001F1E
:102E000018D0FFE71198B0F5800F1BD0FFE711989D
:102E1000B0F5C00F1ED0FFE71198B0F5000F1AD023
:102E20001AE044F22C41C5F60201086840F4003073
:102E3000086015E018980830002102F061FD8DF857
:102E400057000DE018982830002102F041FE8DF85F
:102E5000570005E004E003E001208DF85700FFE78C
:102E60009DF8570068B9FFE744F25841C5F60201E2
:102E7000086820F46000189AD2F8A820104308606F
:102E800004E09DF857008DF85600FFE7FFE718981B
:102E900040780007002850D5FFE71898D0F8AC001C
:102EA0001090A0B1FFE71098B0F1807F18D0FFE735
:102EB0001098B0F1007F1BD0FFE71098B0F1407F71
:102EC0001ED0FFE71098B0F1806F1AD01AE044F2DC
:102ED0002C41C5F60201086840F40030086015E096
:102EE00018980830002102F00BFD8DF857000DE016
:102EF00018982830002102F0EBFD8DF8570005E00E
:102F000004E003E001208DF85700FFE79DF857002B
:102F100068B9FFE744F25841C5F60201086820F09D
:102F2000E060189AD2F8AC201043086004E09DF8E5
:102F300057008DF85600FFE7FFE71898C078800724
:102F400000283ED5FFE71898C06C0F90F0B1FFE75E
:102F50000F98102808D0FFE70F9820280DD0FFE722
:102F60000F98302811D012E044F22C41C5F602012E
:102F7000086840F4003008600DE01898083002211D
:102F800002F0BEFC8DF8570005E004E003E00120EC
:102F90008DF85700FFE79DF8570060B9FFE744F24E
:102FA0004C41C5F60201086820F03000189AD26C36
:102FB0001043086004E09DF857008DF85600FFE7C5
:102FC000FFE718984078C00600284ED5FFE718980C
:102FD000006E0E90A0B1FFE70E98B0F5805F18D09C
:102FE000FFE70E98B0F5005F1BD0FFE70E98B0F535
:102FF000405F1ED0FFE70E98B0F5804F1AD01AE060
:1030000044F22C41C5F60201086840F40030086023
:1030100015E018980830002102F072FC8DF8570076
:103020000DE018982830002102F052FD8DF857006D
:1030300005E004E003E001208DF85700FFE79DF86C
:10304000570060B9FFE744F25041C5F60201086835
:1030500020F4E040189A126E1043086004E09DF8D6
:1030600057008DF85600FFE7FFE718984078800674
:1030700000284CD5FFE71898406E0D90C8B1FFE7C7
:103080000D98B0F5803F15D0FFE70D98B0F5003FE3
:1030900018D0FFE70D98B0F5403F1BD0FFE70D9823
:1030A000B0F5802F17D0FFE70D98B0F5A02F13D003
:1030B00013E016E018980830012102F021FC8DF889
:1030C00057000EE018982830012102F001FD8DF81C
:1030D000570006E005E004E003E001208DF857000A
:1030E000FFE79DF8570060B9FFE744F25041C5F68D
:1030F0000201086820F4E020189A526E104308601C
:1031000004E09DF857008DF85600FFE7FFE7189898
:103110004078400600284ED5FFE71898D0F8B00058
:103120000C90C8B1FFE70C98B0F1805F15D0FFE7B5
:103130000C98B0F1005F18D0FFE70C98B0F1405F39
:103140001BD0FFE70C98B0F1804F17D0FFE70C9829
:10315000B0F1A04F13D013E016E018980830012109
:1031600002F0CEFB8DF857000EE0189828300121B0
:1031700002F0AEFC8DF8570006E005E004E003E045
:1031800001208DF85700FFE79DF8570068B9FFE769
:1031900044F25841C5F60201086820F0E040189A50
:1031A000D2F8B0201043086004E09DF857008DF875
:1031B0005600FFE7FFE718984078000600283BD547
:1031C000FFE71898006F0B90D8B1FFE70B98B0F1AC
:1031D000805F05D0FFE70B98B0F1005F09D011E0E8
:1031E00044F22C41C5F60201086840F40030086042
:1031F0000CE018980830012102F082FB8DF857008E
:1032000004E003E001208DF85700FFE79DF8570028
:1032100060B9FFE744F25041C5F60201086820F0AA
:103220004050189A126F1043086004E09DF8570050
:103230008DF85600FFE7FFE71898C078C007002810
:1032400037D0FFE71898806C0A90032817D80A999E
:10325000DFE801F014020B1344F22C41C5F6020121
:10326000086840F4003008600DE01898083002212A
:1032700002F046FB8DF8570005E004E003E0012072
:103280008DF85700FFE79DF8570060B9FFE744F25B
:103290004C41C5F60201086820F00300189A926CB0
:1032A0001043086004E09DF857008DF85600FFE7D2
:1032B000FFE7189880784006002840F1B480FFE7C7
:1032C00044F60001C5F60201086840F48070086009
:1032D000FFF79EF81690FFE744F60000C5F60200DF
:1032E0000068C00500280CD4FFE7FFF791F8169995
:1032F000401A652804D3FFE703208DF8570000E04B
:10330000EAE79DF85700002840F08780FFE744F285
:103310007040C5F60200006800F440701899D1F8BA
:10332000B41001F44071884213D0FFE744F27041B9
:10333000C5F60201086820F440701790086840F450
:1033400080300860086820F48030086017980860B2
:10335000FFE71898D0F8B400B0F5807F1FD1FFE7E1
:10336000FFF756F81690FFE744F27040C5F60200EA
:10337000006800F002010020B0EB510F0ED1FFE712
:10338000FFF746F81699401A41F28931884204D372
:10339000FFE703208DF8570000E0E5E7FFE79DF821
:1033A0005700A0BBFFE7FFE71898D0F8B40000F47F
:1033B0004070B0F5407F13D1FFE744F21041C5F6ED
:1033C0000201086820F47C50189AD2F8B4204FF615
:1033D000F043C0F6FF731A4040EA1210086008E09C
:1033E00044F21041C5F60201086820F47C500860E0
:1033F000FFE71898D0F8B4206FF31F3244F2704101
:10340000C5F60201086810430860FFE704E09DF874
:1034100057008DF85600FFE704E09DF857008DF83F
:103420005600FFE7FFE718980068C007002800F083
:103430004C80FFE71898C06F099028282BD809996D
:10344000DFE801F0152929292929292916292929FF
:10345000292929291E2929292929292926292929EA
:10346000292929292729292929292929280016E054
:1034700018980830012102F043FA8DF857000EE049
:1034800018982830012102F023FB8DF8570006E040
:1034900005E004E003E001208DF85700FFE79DF808
:1034A000570060B9FFE744F25441C5F602010868CD
:1034B00020F03800189AD26F1043086004E09DF89D
:1034C00057008DF85600FFE7FFE71898007880074F
:1034D000002839D5FFE71898806F0890052819D87B
:1034E0000899DFE801F003040C14151616E018988B
:1034F0000830012102F004FA8DF857000EE0189808
:103500002830012102F0E4FA8DF8570006E005E0CA
:1035100004E003E001208DF85700FFE79DF8570015
:1035200060B9FFE744F25441C5F60201086820F093
:103530000700189A926F1043086004E09DF8570046
:103540008DF85600FFE7FFE718980078400700283D
:103550003BD5FFE71898D0F894000790052819D8B4
:103560000799DFE801F003040C14151616E018980B
:103570000830012102F0C4F98DF857000EE01898C8
:103580002830012102F0A4FA8DF8570006E005E08A
:1035900004E003E001208DF85700FFE79DF8570095
:1035A00068B9FFE744F25841C5F60201086820F007
:1035B0000700189AD2F894201043086004E09DF8A0
:1035C00057008DF85600FFE7FFE71898007880064F
:1035D00000284ED5FFE71898D0F890000690C8B1A3
:1035E000FFE70698B0F1805F15D0FFE70698B0F1CD
:1035F000005F18D0FFE70698B0F1405F1BD0FFE7EF
:103600000698B0F1804F17D0FFE70698B0F1A04FB1
:1036100013D013E016E018980830002102F070F97A
:103620008DF857000EE018982830022102F050FA69
:103630008DF8570006E005E004E003E001208DF876
:103640005700FFE79DF8570068B9FFE744F254417F
:10365000C5F60201086820F0E040189AD2F89020E0
:103660001043086004E09DF857008DF85600FFE70E
:10367000FFE718980078400600284ED5FFE7189815
:10368000D0F89C000590C8B1FFE70598B0F5806FB1
:1036900015D0FFE70598B0F5006F18D0FFE7059843
:1036A000B0F5406F1BD0FFE70598B0F5805F17D0ED
:1036B000FFE70598B0F5A05F13D013E016E0189867
:1036C0000830002102F01CF98DF857000EE0189820
:1036D0002830022102F0FCF98DF8570006E005E0E1
:1036E00004E003E001208DF85700FFE79DF8570044
:1036F00068B9FFE744F25841C5F60201086820F4B2
:10370000E050189AD2F89C201043086004E09DF81D
:1037100057008DF85600FFE7FFE71898007800067D
:1037200000284ED5FFE71898D0F8A0000490C8B143
:10373000FFE70498B0F5005F15D0FFE70498B0F5F7
:10374000804F18D0FFE70498B0F5C04F1BD0FFE7BB
:103750000498B0F5004F17D0FFE70498B0F5204F5C
:1037600013D013E016E018980830002102F0C8F8D2
:103770008DF857000EE018982830022102F0A8F9C1
:103780008DF8570006E005E004E003E001208DF825
:103790005700FFE79DF8570068B9FFE744F258412A
:1037A000C5F60201086820F46040189AD2F8A020FB
:1037B0001043086004E09DF857008DF85600FFE7BD
:1037C000FFE7189800780007002820D5FFE7189831
:1037D000D0F88400B0F5805F0CD1FFE7189828304E
:1037E000022102F075F920B1FFE701208DF85600A3
:1037F000FFE7FFE744F25441C5F60201086820F4F0
:103800004050189AD2F8842010430860FFE71898B7
:103810000078C006002820D5FFE71898D0F8980057
:10382000B0F5807F0CD1FFE718982830022102F014
:103830004FF920B1FFE701208DF85600FFE7FFE7C1
:1038400044F25841C5F60201086820F44070189A05
:10385000D2F8982010430860FFE718988078000796
:1038600000283CD5FFE71898D0F8A400039050B189
:10387000FFE70398B0F5803F0DD0FFE70398B0F560
:10388000003F10D010E018980830002102F038F8FE
:103890008DF857000CE018982830022102F018F932
:1038A0008DF8570004E003E001208DF85700FFE792
:1038B0009DF8570068B9FFE744F25841C5F6020188
:1038C000086820F44030189AD2F8A4201043086009
:1038D00004E09DF857008DF85600FFE7FFE71898C1
:1038E0008078400700283FD5FFE71898D0F8880077
:1038F0000290B0F5801F0AD0FFE70298B0F5001FD4
:103900000ED0FFE70298B0F5401F11D011E044F24D
:103910002C41C5F60201086840F4003008600CE054
:1039200018982830012102F0D3F88DF8570004E0F0
:1039300003E001208DF85700FFE79DF8570068B9B4
:10394000FFE744F25441C5F60201086820F4401034
:10395000189AD2F888201043086004E09DF85700B8
:103960008DF85600FFE7FFE718988078C007A8B3E6
:10397000FFE71898006D019028B1FFE70198B0F5B6
:10398000803F09D010E044F22C41C5F602010868DE
:1039900040F4003008600BE018980830022101F074
:1039A000AFFF8DF8570003E001208DF85700FFE7C7
:1039B0009DF8570060B9FFE744F24C41C5F602019B
:1039C000086820F48030189A126D1043086004E0F3
:1039D0009DF857008DF85600FFE7FFE71898C0786C
:1039E000800600280CD5FFE718982830022102F045
:1039F0006FF820B1FFE701208DF85600FFE7FFE7E1
:103A000018988078800700283CD5FFE71898D0F8F0
:103A100080000090D0B1FFE70098B0F5807F0AD019
:103A2000FFE70098B0F5007F0ED0FFE70098B0F5F3
:103A3000407F0AD00BE044F22C41C5F60201086831
:103A400040F40030086006E005E004E003E00120F7
:103A50008DF85700FFE79DF8570068B9FFE744F27B
:103A60005441C5F60201086820F44070189AD2F853
:103A700080201043086004E09DF857008DF8560040
:103A8000FFE7FFE718988078C00600280CD5FFE70D
:103A900044F25041C5F60201086820F00040189A2F
:103AA000526F10430860FFE71898C078C0060028DE
:103AB0000DD5FFE744F21041C5F60201086820F475
:103AC0008040189AD2F8B82010430860FFE7189891
:103AD0008078800600280CD5FFE744F25041C5F6F7
:103AE0000201086820F08070189AD26E10430860B6
:103AF000FFE71898C0784006002811D5FFE7FFE7D8
:103B000044F21041C5F60201086820F40040086044
:103B10001898D0F8BC20086810430860FFE7FFE75A
:103B20001898C078000600280CD5FFE744F24C41F5
:103B3000C5F60201086820F04050189A526D1043F3
:103B40000860FFE718988078000600280DD5FFE789
:103B500044F25441C5F60201086820F44000189A66
:103B6000D2F88C2010430860FFE718980079C0074E
:103B700090B1FFE718980830002101F0C1FE8DF8E0
:103B800057009DF8570008B9FFE704E09DF857007B
:103B90008DF85600FFE7FFE71898007980070028A6
:103BA00012D5FFE718980830012101F0A9FE8DF821
:103BB00057009DF8570008B9FFE704E09DF857004B
:103BC0008DF85600FFE7FFE71898007940070028B6
:103BD00012D5FFE718980830022101F091FE8DF808
:103BE00057009DF8570008B9FFE704E09DF857001B
:103BF0008DF85600FFE7FFE71898007900070028C6
:103C000012D5FFE718982830002101F061FF8DF8E8
:103C100057009DF8570008B9FFE704E09DF85700EA
:103C20008DF85600FFE7FFE718980079C0060028D6
:103C300012D5FFE718982830012101F049FF8DF8CF
:103C400057009DF8570008B9FFE704E09DF85700BA
:103C50008DF85600FFE7FFE71898007980060028E6
:103C600012D5FFE718982830022101F031FF8DF8B6
:103C700057009DF8570008B9FFE704E09DF857008A
:103C80008DF85600FFE7FFE79DF8560020B9FFE7E3
:103C900000208DF8670003E001208DF86700FFE742
:103CA0009DF867001AB080BD80B586B0049003917E
:103CB000049820B9FFE701208DF817003CE2039833
:103CC00042F20001C5F20021096801F00F018842AB
:103CD00016D9FFE742F20000C5F20020016821F08A
:103CE0000F01039A11430160006800F00F0003996F
:103CF000884204D0FFE701208DF817001CE2FFE79F
:103D0000049800784007002819D5FFE70498006957
:103D100044F21841C5F60201096801F070018842B9
:103D20000CD9FFE744F21841C5F60201086820F0FB
:103D30007000049A126910430860FFE7FFE70498D7
:103D400000780007002819D5FFE70498406944F27D
:103D50001C41C5F60201096801F0700188420CD9C6
:103D6000FFE744F21C41C5F60201086820F070002C
:103D7000049A526910430860FFE7FFE7049800784F
:103D8000C006002819D5FFE70498806944F21C4159
:103D9000C5F60201096801F4E06188420CD9FFE729
:103DA00044F21C41C5F60201086820F4E060049A60
:103DB000926910430860FFE7FFE7049800788006E7
:103DC000002819D5FFE70498C06944F22041C5F6E0
:103DD0000201096801F0700188420CD9FFE744F242
:103DE0002041C5F60201086820F07000049AD269EB
:103DF00010430860FFE7FFE7049800788007002879
:103E000019D5FFE70498C06844F21841C5F60201CD
:103E1000096801F00F0188420CD9FFE744F218410C
:103E2000C5F60201086820F00F00049AD26810431A
:103E30000860FFE7FFE704980078C007002800F05B
:103E40008C80FFE744F21841C5F60201086820F4AF
:103E50007060049A926810430860049840680228D1
:103E600011D1FFE744F20040C5F60200006800F4FB
:103E700000310020B0EB514F04D1FFE701208DF855
:103E8000170059E13EE004984068032811D1FFE78C
:103E900044F20040C5F60200006800F00071002006
:103EA000B0EB516F04D1FFE701208DF8170043E11B
:103EB00027E004984068012811D1FFE744F2004050
:103EC000C5F60200006800F480710020B0EB112FED
:103ED00004D1FFE701208DF817002DE110E044F236
:103EE0000040C5F60200006800F004010020B0EBBD
:103EF000910F04D1FFE701208DF817001CE1FFE7C7
:103F0000FFE7FFE744F21041C5F60201086820F020
:103F10000700049A526810430860FEF779FA01908E
:103F2000FFE744F21040C5F60200006800F03800D8
:103F300004994968B0EBC10F0ED0FFE7FEF768FAAD
:103F40000199401A41F28931884204D3FFE70320E6
:103F50008DF81700F0E0E4E7FFE7049800788007A9
:103F6000002819D5FFE70498C06844F21841C5F647
:103F70000201096801F00F0188420CD2FFE744F208
:103F80001841C5F60201086820F00F00049AD268B3
:103F900010430860FFE7FFE7039842F20001C5F213
:103FA0000021096801F00F01884216D2FFE742F2B2
:103FB0000000C5F20020016821F00F01039A1143AF
:103FC0000160006800F00F000399884204D0FFE709
:103FD00001208DF81700AFE0FFE704980078400754
:103FE000002819D5FFE70498006944F21841C5F686
:103FF0000201096801F0700188420CD2FFE744F227
:104000001841C5F60201086820F07000049A126990
:1040100010430860FFE7FFE70498007800070028D6
:1040200019D5FFE70498406944F21C41C5F6020126
:10403000096801F0700188420CD2FFE744F21C418C
:10404000C5F60201086820F07000049A5269104316
:104050000860FFE7FFE704980078C006002819D53C
:10406000FFE70498806944F21C41C5F60201096823
:1040700001F4E06188420CD2FFE744F21C41C5F62E
:104080000201086820F4E060049A92691043086015
:10409000FFE7FFE7049800788006002819D5FFE7BE
:1040A0000498C06944F22041C5F60201096801F094
:1040B000700188420CD2FFE744F22041C5F60201AC
:1040C000086820F07000049AD26910430860FFE786
:1040D000FFE700F089F844F21842C5F602021168C1
:1040E000C1F3032348F60001C0F60001CB5C03F0E6
:1040F0001F03D84000900098126802F00F02895CFC
:1041000001F01F01C84040F21001C2F20001086036
:10411000009840F20C01C2F20001086040F2180061
:10412000C2F200000068FEF7CBF98DF80B009DF895
:104130000B008DF81700FFE79DF8170006B080BD53
:1041400080B582B000F050F844F21842C5F6020281
:104150001168C1F3032348F60001C0F60001CB5CEF
:1041600003F01F03D84001900198126802F00F027B
:10417000895C01F01F0120FA01F140F21000C2F247
:1041800000000160019940F20C02C2F200021160CD
:10419000006802B080BD000080B5FFF7D1FF44F297
:1041A0001C41C5F602010968C1F3021248F600017C
:1041B000C0F60001895C01F01F01C84080BD00000D
:1041C00080B5FFF7BDFF44F21C41C5F60201096846
:1041D000C1F3022248F60001C0F60001895C01F03B
:1041E0001F01C84080BD00008AB044F21040C5F6EF
:1041F0000200006800F0380001460191182800F222
:1042000069810199DFE811F0190066016601660114
:1042100066016601660166013A0066016601660193
:10422000660166016601660140006601660166017D
:104230006601660166016601460044F20040C5F66B
:104240000200006800F020010020B0EB511F0ED0EA
:10425000FFE744F20040C5F602000068C0F3C10168
:1042600049F20000C0F2D030C840029005E049F2A7
:104270000000C0F2D0300290FFE731E140F60010BC
:10428000C0F23D0002902BE147F64000C0F27D10E5
:10429000029025E144F22840C5F60200016801F0D1
:1042A000030108910068C0F30510079044F22C4008
:1042B000C5F60200006800F001000690069844F27E
:1042C0003441C5F60201096889B2C908484300EEC5
:1042D000100AB8EE400A8DED040A0798002800F095
:1042E000F580FFE70898009048B1FFE700980128A3
:1042F00069D0FFE70098022800F08980ABE044F223
:104300000040C5F60200006800F020010020B0EB7C
:10431000511F33D0FFE744F20040C5F602000068A9
:10432000C0F3C10149F20000C0F2D030C84005908E
:104330009DED050AB8EE400A9DED071AB8EE411A48
:1043400080EE010A44F23040C5F6020000686FF3C7
:104350005F2001EE100AB8EE411A9DED042A9FED90
:10436000633A82EE032A31EE021AB7EE002A31EEEA
:10437000021A20EE010A8DED030A23E09DED070AE3
:10438000B8EE401A9FED5B0A80EE010A44F230401D
:10439000C5F6020000686FF35F2001EE100AB8EE68
:1043A000411A9DED042A9FED513A82EE032A31EE27
:1043B000021AB7EE002A31EE021A20EE010A8DED44
:1043C000030AFFE76BE09DED070AB8EE401A9FED88
:1043D000480A80EE010A44F23040C5F60200006847
:1043E0006FF35F2001EE100AB8EE411A9DED042A2A
:1043F0009FED3E3A82EE032A31EE021AB7EE002A12
:1044000031EE021A20EE010A8DED030A47E09DED20
:10441000070AB8EE401A9FED340A80EE010A44F212
:104420003040C5F6020000686FF35F2001EE100A0D
:10443000B8EE411A9DED042A9FED2C3A82EE032A34
:1044400031EE021AB7EE002A31EE021A20EE010A0E
:104450008DED030A23E09DED070AB8EE401A9FEDAB
:10446000240A80EE010A44F23040C5F602000068DA
:104470006FF35F2001EE100AB8EE411A9DED042A99
:104480009FED1A3A82EE032A31EE021AB7EE002AA5
:1044900031EE021A20EE010A8DED030AFFE744F225
:1044A0003040C5F60200006881B2012000EB5120C7
:1044B00009909DED030A9DED091AB8EE411A80EEB0
:1044C000010ABCEEC00A8DED020A02E00020029053
:1044D000FFE705E040F60010C0F23D000290FFE764
:1044E00002980AB0704700BF20BCBE4B00000046D7
:1044F0000024744A0024744C80B58CB00A900A9849
:1045000028B9FFE701208DF82F0000F09DBD0A9823
:104510000078C007002800F0B980FFE744F210409F
:10452000C5F60200006800F03800069044F228400A
:10453000C5F6020000680590069810280AD0FFE72B
:10454000069818281CD1FFE7059800F00300022800
:1045500016D1FFE744F20040C5F60200006800F4FF
:1045600000310020B0EB514F09D0FFE70A984068B6
:1045700028B9FFE701208DF82F0000F065BD84E029
:10458000FFE70A984068B0F5803F09D1FFE744F2A1
:104590000041C5F60201086840F48030086032E04E
:1045A0000A98406868B9FFE744F20041C5F6020185
:1045B000086820F480300860086820F480200860D3
:1045C00020E00A984068B0F5A02F0DD1FFE744F233
:1045D0000041C5F60201086840F4802008600868C0
:1045E00040F4803008600CE044F20041C5F602015E
:1045F000086820F480300860086820F48020086093
:10460000FFE7FFE7FFE7FFE70A984068F0B1FFE741
:10461000FDF7FEFE0990FFE744F20040C5F60200F8
:10462000006800F400310020B0EB514F0DD1FFE7DE
:10463000FDF7EEFE0999401A652805D3FFE7032030
:104640008DF82F0000F000BDE6E71DE0FDF7E0FE6D
:104650000990FFE744F20040C5F60200006800F44C
:1046600000310020B0EB514F0DD0FFE7FDF7D0FE39
:104670000999401A652805D3FFE703208DF82F001C
:1046800000F0E2BCE6E7FFE7FFE7FFE70A98007803
:104690008007002840F11681FFE744F21040C5F67C
:1046A0000200006800F03800049044F22840C5F68B
:1046B000020000680390049850B1FFE7049818289E
:1046C00078D1FFE79DF80C008007002872D1FFE742
:1046D00044F20040C5F60200006800F0040100202A
:1046E000B0EB910F09D0FFE70A98C06828B9FFE73F
:1046F00001208DF82F0000F0A7BC44F20041C5F660
:104700000201086820F019000A9AD2681043086074
:10471000FDF77EFE0990FFE744F20040C5F6020077
:10472000006800F004010020B0EB910F0DD1FFE70D
:10473000FDF76EFE0999401A032805D3FFE7032011
:104740008DF82F0000F080BCE6E7FFE7FDF758FE8C
:1047500041F2030188421DD8FFE70A98006940280A
:104760000AD1FFE744F20441C5F60201086820229D
:1047700062F3113008600CE044F20441C5F6020116
:10478000086820F47C300A9A126940EA0230086016
:10479000FFE70CE044F20441C5F60201086820F08E
:1047A000FE400A9A126940EA02600860FFE7FFE7EC
:1047B000FFE786E00A98C06800285CD0FFE744F273
:1047C0000041C5F60201086820F019000A9AD26873
:1047D00010430860FDF71CFE0990FFE744F200401B
:1047E000C5F60200006800F004010020B0EB910F54
:1047F0000DD1FFE7FDF70CFE0999401A032805D3F8
:10480000FFE703208DF82F0000F01EBCE6E7FFE76E
:10481000FDF7F6FD41F2030188421DD8FFE70A9833
:10482000006940280AD1FFE744F20441C5F60201BD
:104830000868202262F3113008600CE044F2044161
:10484000C5F60201086820F47C300A9A126940EA31
:1048500002300860FFE70CE044F20441C5F60201B3
:10486000086820F0FE400A9A126940EA0260086077
:10487000FFE7FFE724E044F20041C5F602010868C3
:1048800020F001000860FDF7C3FD0990FFE744F246
:104890000040C5F60200006800F004010020B0EB03
:1048A000910F0CD0FFE7FDF7B3FD0999401A0328DB
:1048B00004D3FFE703208DF82F00C5E3E7E7FFE708
:1048C000FFE7FFE70A980078C006002840F1EB8078
:1048D000FFE744F21040C5F60200006800F038001F
:1048E000029044F22840C5F6020000680190029848
:1048F00008280AD0FFE70298182850D1FFE701984E
:1049000000F0030001284AD1FFE744F20040C5F659
:104910000200006800F480710020B0EB112F09D074
:10492000FFE70A98C069802804D0FFE701208DF8CE
:104930002F0089E3FFE7FDF763FD41F203018842A1
:104940001DD8FFE70A98006A20280AD1FFE744F241
:104950000441C5F602010868102262F39E600860F7
:104960000CE044F20441C5F60201086820F0F8406A
:104970000A9A126A40EA82600860FFE70CE044F29B
:104980000C41C5F60201086820F07C500A9A126AB0
:1049900040EA02600860FFE7FFE7FFE782E00A986D
:1049A000C069002858D0FFE744F20041C5F6020173
:1049B000086840F080000860FDF72AFD0990FFE7D5
:1049C00044F20040C5F60200006800F48071002047
:1049D000B0EB112F0CD1FFE7FDF71AFD0999401A32
:1049E000032804D3FFE703208DF82F002CE3E7E72B
:1049F000FFE7FDF705FD41F2030188421DD8FFE7FF
:104A00000A98006A20280AD1FFE744F20441C5F65B
:104A100002010868102262F39E6008600CE044F214
:104A20000441C5F60201086820F0F8400A9A126AAB
:104A300040EA82600860FFE70CE044F20C41C5F6F2
:104A40000201086820F07C500A9A126A40EA02606B
:104A50000860FFE7FFE724E044F20041C5F60201E9
:104A6000086820F080000860FDF7D2FC0990FFE79D
:104A700044F20040C5F60200006800F48071002096
:104A8000B0EB112F0CD0FFE7FDF7C2FC0999401ADB
:104A9000032804D3FFE703208DF82F00D4E2E7E7D3
:104AA000FFE7FFE7FFE70A980078000700284FD5E7
:104AB000FFE70A98406928B3FFE744F27441C5F65E
:104AC0000201086840F001000860FDF7A1FC0990B0
:104AD000FFE744F27440C5F60200006800F00201EE
:104AE0000020B0EB510F0CD1FFE7FDF791FC0999C5
:104AF000401A032804D3FFE703208DF82F00A3E218
:104B0000E7E724E044F27441C5F60201086820F0AA
:104B100001000860FDF77CFC0990FFE744F2744057
:104B2000C5F60200006800F002010020B0EB510F52
:104B30000CD0FFE7FDF76CFC0999401A032804D359
:104B4000FFE703208DF82F007EE2E7E7FFE7FFE7AE
:104B50000A980078800600284FD5FFE70A988069F8
:104B600028B3FFE744F20041C5F60201086840F4AB
:104B700080500860FDF74CFC0990FFE744F20040CC
:104B8000C5F60200006800F400510020B0EB513F70
:104B90000CD1FFE7FDF73CFC0999401A032804D328
:104BA000FFE703208DF82F004EE2E7E724E044F210
:104BB0000041C5F60201086820F480500860FDF746
:104BC00027FC0990FFE744F20040C5F602000068A8
:104BD00000F400510020B0EB513F0CD0FFE7FDF78F
:104BE00017FC0999401A032804D3FFE703208DF826
:104BF0002F0029E2E7E7FFE7FFE70A980078400780
:104C0000002840F1A780FFE744F60001C5F6020145
:104C1000086840F480700860FDF7FAFB0990FFE730
:104C200044F60000C5F602000068C00500280CD458
:104C3000FFE7FDF7EDFB0999401A652804D3FFE76C
:104C400003208DF82F00FFE1EAE7FFE70A9880686C
:104C5000012809D1FFE744F27041C5F60201086856
:104C600040F00100086031E00A98806868B9FFE709
:104C700044F27041C5F60201086820F001000860A6
:104C8000086820F0040008601FE00A988068052882
:104C90000DD1FFE744F27041C5F60201086840F00B
:104CA00004000860086840F0010008600CE044F26D
:104CB0007041C5F60201086820F00100086008682C
:104CC00020F004000860FFE7FFE7FFE7FFE70A982E
:104CD0008068F8B1FFE7FDF79BFB0990FFE744F21E
:104CE0007040C5F60200006800F002010020B0EB41
:104CF000510F0ED1FFE7FDF78BFB0999401A41F2E6
:104D00008931884204D3FFE703208DF82F009BE10F
:104D1000E5E71EE0FDF77CFB0990FFE744F27040F9
:104D2000C5F60200006800F002010020B0EB510F50
:104D30000ED0FFE7FDF76CFB0999401A41F289316B
:104D4000884204D3FFE703208DF82F007CE1E5E7DC
:104D5000FFE7FFE70A98406A002800F07181FFE74B
:104D600044F21040C5F60200006800F03800182830
:104D700000F0E080FFE70A98406A022840F0B48023
:104D8000FFE744F20041C5F60201086820F0807098
:104D90000860FDF73DFB0990FFE744F20040C5F6CF
:104DA0000200006800F000710020B0EB516F0CD0E1
:104DB000FFE7FDF72DFB0999401A032804D3FFE70D
:104DC00003208DF82F003FE1E7E7FFE744F2284199
:104DD000C5F60201086840F2F33290430A9B9A6AD2
:104DE000DB6A42EA0312104308600A99086BD1F8A3
:104DF00034C08B6BCA6B01386FF35F204FF60061D4
:104E0000CFF6FF7101EB4C2189B208440021CFF6A7
:104E1000FF7101EB034101F4FE0108444FF07F41B3
:104E200001EB026101F0FE41084444F23041C5F655
:104E300002010860FFE744F22C41C5F6020100912F
:104E4000086820F00100086044F23442C5F602020E
:104E500010684FF6F87398430A9B9B6C40EAC300B6
:104E60001060086820F00C000A9A126C1043086069
:104E7000086820F002000A9A526C10430860086823
:104E800040F480300860086840F40030086008682A
:104E900040F480200860086840F00100086044F297
:104EA0000041C5F60201086840F080700860FDF717
:104EB000AFFA0990FFE744F20040C5F6020000682F
:104EC00000F000710020B0EB516F0CD1FFE7FDF74F
:104ED0009FFA0999401A032804D3FFE703208DF8AD
:104EE0002F00B1E0E7E724E044F20041C5F60201FB
:104EF000086820F080700860FDF78AFA0990FFE7E3
:104F000044F20040C5F60200006800F00071002085
:104F1000B0EB516F0CD0FFE7FDF77AFA0999401A10
:104F2000032804D3FFE703208DF82F008CE0E7E788
:104F3000FFE784E044F22840C5F6020000680890CC
:104F400044F23040C5F60200006807900A98406AB3
:104F5000012837D0FFE7089800F003000A99896A12
:104F600088422FD1FFE7089800F47C710A98C06A44
:104F7000B0EB111F26D1FFE707986FF35F200A9966
:104F8000096B013988421DD1FFE7BDF81C100A9852
:104F9000406B0138B0EB512F14D1FFE7079800F4B4
:104FA000FE010A98806B0138B0EB114F0AD1FFE780
:104FB000079800F0FE410A98C06B0138B0EB116F02
:104FC00004D0FFE701208DF82F003DE044F234408B
:104FD000C5F60200006880B2C00808900A98806C8C
:104FE0000899884229D0FFE744F22C41C5F6020116
:104FF000086820F001000860FDF70AFA0990FFE751
:10500000FDF706FA0999401A08B9FFE7F8E744F2F4
:105010003441C5F6020108684FF6F87290430A9AC7
:10502000926C40EAC200086044F22C41C5F60201CD
:10503000086840F001000860FFE7FFE7FFE7FFE7CF
:1050400000208DF82F00FFE79DF82F000CB080BDE9
:1050500080B582B00190019800F052FE02B080BD90
:1050600080B582B00090009820B9FFE701208DF84C
:10507000070045E0009890F83D0040B9FFE700992F
:10508000002081F83C00009800F03EF8FFE700990E
:10509000022081F83D00009951F8040B01F0B4F8AA
:1050A0000099012081F84800FFE70099012081F86C
:1050B0003E00009981F83F00009981F84000009976
:1050C00081F84100009981F84200009981F843007D
:1050D000FFE7FFE70099012081F84400009981F87B
:1050E0004500009981F84600009981F84700FFE7E4
:1050F0000099012081F83D0000208DF80700FFE7AE
:105100009DF8070002B080BD81B0009001B07047EB
:1051100083B00190019890F83D00012804D0FFE78A
:1051200001208DF80B006BE00199022081F83D0011
:10513000019800680021C4F2010188423CD0FFE7D9
:1051400001980068B0F1804F36D0FFE70198006801
:1051500040F20041C4F2000188422DD0FFE70198DF
:10516000006840F60001C4F20001884224D0FFE745
:105170000198006840F60041C4F2000188421BD04B
:10518000FFE70198006840F20041C4F20101884243
:1051900012D0FFE70198006841F60001C4F2000157
:1051A000884209D0FFE70198006844F20001C4F288
:1051B0000101884219D1FFE7019800688068072142
:1051C000C0F2010108400090009806280CD0FFE7CB
:1051D0000098B0F5803F07D0FFE7019801680868A4
:1051E00040F001000860FFE706E0019801680868E8
:1051F00040F001000860FFE700208DF80B00FFE79A
:105200009DF80B0003B0704780B582B00090009805
:1052100020B9FFE701208DF8070046E0009880697B
:1052200008B1FFE700E0FFE70098D0F8880040B938
:10523000FFE70099002081F88400009800F03CF816
:10524000FFE700992420C1F88800009801680868E9
:1052500020F0010008600098806A20B1FFE7009804
:1052600001F0AAF8FFE7009801F03EFA012804D106
:10527000FFE701208DF8070017E0009801684868F3
:1052800020F49040486000980168886820F02A0067
:10529000886000980168086840F001000860009884
:1052A00001F02EF98DF80700FFE79DF8070002B026
:1052B00080BD00000000000081B0009001B0704788
:1052C00085B004904EF62C50CEF200000068C00F5E
:1052D00068B1FFE74EF62C51CEF20001086840F0AD
:1052E00000400860049988690230886199E04EF6B0
:1052F0002450CEF20000006840F27C11C2F200019E
:10530000019108624EF62850CEF20000007881F834
:1053100024004EF62950CEF20000007888624EF646
:105320003850CEF200000068C8624EF62A50CEF225
:105330000000008808864EF62C50CEF2000000686F
:1053400048634EF63050CEF20000006888634EF697
:105350003C50CEF200000068C86348F68F30C0F6BB
:105360000000039000208DF80B00FFE79DF80B0074
:1053700028281BD8FFE703989DF80B10405C41F2EA
:105380002801C4F201010860FFE741F21C00C4F2E9
:10539000010000684006002801D4FFE7F5E7FFE7B9
:1053A0009DF80B0001308DF80B00DFE740F2C011D3
:1053B000C2F2000100200860FFE740F2C010C2F214
:1053C0000000006808B9FFE7F7E70498006840F2BA
:1053D0007C11C2F2000100910860049840684860A6
:1053E0000498806888600498C068C8600498006960
:1053F000086104984069486104988069886104984C
:10540000C069C86140F2C011C2F20001002008600A
:10541000FFE740F2C010C2F20000006808B9FFE7E1
:10542000F7E705B07047000080B5C0B000200B90D2
:1054300001210A9129900AA8FDF7E6FBFFE744F253
:10544000E040C5F60200016841F00101016000681A
:1054500000F0010009900998FFE7FFE744F2E040FF
:10546000C5F60200016841F001010160006800F02A
:10547000010008900898FFE7FFE744F2F040C5F606
:105480000200016841F010010160006800F01000A6
:1054900007900798FFE74FF400703B9002203C9084
:1054A000012003903D9003203E90072000903F9004
:1054B0000020C5F6020001903BA90291FCF790FD87
:1054C000009A019802994FF480633B933F92FCF756
:1054D00087FD039A2520049000210591FDF7B0F87F
:1054E0000498FDF7A1F8059A41F20000C4F201000A
:1054F00006904FF4E1310C2302F012FB069941F2C1
:105500002002C4F20102106840F04000106041F235
:105510001802C4F20102106840F008001060086828
:1055200040F02000086040B080BD00000000000096
:1055300080B582B08DF806009DF80600072839DC9A
:10554000FFE700208DF80400FF218DF803108DF88F
:105550000500FFE79DF80500072817DCFFE79DF829
:10556000050000F05DF850B1FFE79DF80400013040
:105570008DF804009DF805008DF80300FFE7FFE7B4
:105580009DF8050001308DF80500E3E79DF8040063
:1055900001280BD1FFE79DF803009DF80610884213
:1055A00004D1FFE701208DF8070035E000208DF8D9
:1055B000070031E09DF80600082812D1FFE700201F
:1055C00000F02EF848B1FFE7012000F029F820B1E3
:1055D000FFE701208DF807001EE000208DF807008E
:1055E0001AE09DF80600092812D1FFE7012000F01B
:1055F00017F848B1FFE7022000F012F820B1FFE7EA
:1056000001208DF8070007E000208DF8070003E077
:1056100000208DF80700FFE79DF8070002B080BD6D
:1056200081B08DF802009DF8020048F62801C0F60E
:10563000000151F8300000699DF8022001EBC20121
:105640008988084204D1FFE700208DF8010003E0BB
:1056500001208DF80100FFE79DF801009DF8022070
:1056600048F62801C0F6000101EBC20189798842A1
:1056700004D1FFE701208DF8030003E000208DF83E
:105680000300FFE79DF8030001B070470000000031
:1056900080B588B0FCF798FF012101918DF81010BA
:1056A0004FF01050059012208DF818000320009044
:1056B0008DF81B008DF81F108DF81E100020029031
:1056C0008DF81D008DF811008DF81A108DF8190055
:1056D0008DF81C0004A80390FCF736FF009B019A8C
:1056E000029903988DF810204FF0C04CCDF814C0EB
:1056F0004FF00F0C8DF818C08DF81B308DF81F205F
:105700008DF81E108DF81D108DF811208DF81A10CF
:105710008DF819108DF81C10FCF716FF0420FCF70B
:1057200067FF08B080BD0000FFE7FEE70000000053
:10573000704700000000000088B0079006910592B5
:10574000079800F0070004900498C0F107000528AE
:1057500003D3FFE70420019004E00498C0F10700A0
:105760000190FFE70198039004980430062803D8BD
:10577000FFE70020009003E0049803380090FFE763
:105780000098029006980399012202FA01F101396A
:105790000840029B984005999A40013A11400843FD
:1057A00008B07047000000007047000000000000D3
:1057B00080B548F69410C0F60000FAF7C9FE48F626
:1057C000F300C0F60000FAF7C3FE48F64210C0F638
:1057D0000000FAF7BDFE80BD80B584B048F67E209B
:1057E000C0F600000090FAF7B3FE4EF60000C1F6D6
:1057F000F170006803904EF60400C1F6F170006885
:1058000002904EF60800C1F6F1700068019040F277
:105810000C00C2F2000000684DF68361C4F21B3137
:10582000A0FB0110810C48F62220C0F60000FAF718
:105830008FFE0199029A039B48F6BE20C0F6000035
:10584000FAF786FE48F6D220C0F60000FAF780FE8E
:105850000098FAF77DFE48F6F510C0F6000048F60D
:10586000E421C0F60001FAF773FE48F6DD10C0F639
:10587000000048F6D521C0F60001FAF769FE48F6A7
:10588000C510C0F6000048F6D921C0F60001FAF7AD
:105890005FFE48F6C100C0F60000FAF759FE48F670
:1058A0006800C0F60000FAF753FE48F66D00C0F637
:1058B0000000FAF74DFE48F60D20C0F60000FAF79A
:1058C00047FE48F68500C0F60000FAF741FE48F6AC
:1058D000A000C0F60000FAF73BFE48F6A410C0F6A0
:1058E0000000FAF735FE48F65120C0F60000FAF73E
:1058F0002FFE0098FAF72CFE04B080BD00000000D7
:1059000080B586B00490039100208DF8070044F222
:105910002840C5F60200006800F00300032804D107
:10592000FFE701208DF81700CBE044F20041C5F6F7
:105930000201086820F080600860FCF769FD0290B1
:10594000FFE744F20040C5F60200006800F0006185
:105950000020B0EBD16F0CD0FFE7FCF759FD0299A6
:10596000401A032804D3FFE703208DF81700A8E0AE
:10597000E7E7FFE744F22841C5F60201086820F492
:105980007C30049A126840EA023008600499486842
:10599000D1F808C0CB680A6901386FF35F204FF671
:1059A0000061CFF6FF7101EB4C2189B20844002160
:1059B000CFF6FF7101EB034101F4FE0108444FF003
:1059C0007F4101EB026101F0FE41084444F238419D
:1059D000C5F602010860FFE744F22C41C5F602015A
:1059E0000091086820F0C000049A526910430860D2
:1059F000086820F02000049A926910430860086843
:105A000020F01000086044F23C42C5F60202106823
:105A10004FF6F8739843049BDB6940EAC3001060BB
:105A2000086840F010000860039848B9FFE744F2A6
:105A30002C41C5F60201086840F40020086016E019
:105A40000398012809D1FFE744F22C41C5F6020171
:105A5000086840F48010086008E044F22C41C5F664
:105A60000201086840F400100860FFE7FFE744F215
:105A70000041C5F60201086840F080600860FCF74C
:105A8000C7FC0290FFE744F20040C5F60200006840
:105A900000F000610020B0EBD16F0CD1FFE7FCF704
:105AA000B7FC0299401A032804D3FFE703208DF8BE
:105AB000170006E0E7E7FFE79DF807008DF81700FD
:105AC000FFE79DF8170006B080BD00000000000051
:105AD00080B586B00490039100208DF8070044F251
